{
  "_format": "hh-sol-artifact-1",
  "contractName": "ElectroUno",
  "sourceName": "contracts/ElectroUno.sol",
  "abi": [
    {
      "inputs": [],
      "stateMutability": "nonpayable",
      "type": "constructor"
    },
    {
      "inputs": [
        {
          "internalType": "address",
          "name": "sender",
          "type": "address"
        },
        {
          "internalType": "uint256",
          "name": "tokenId",
          "type": "uint256"
        },
        {
          "internalType": "address",
          "name": "owner",
          "type": "address"
        }
      ],
      "name": "ERC721IncorrectOwner",
      "type": "error"
    },
    {
      "inputs": [
        {
          "internalType": "address",
          "name": "operator",
          "type": "address"
        },
        {
          "internalType": "uint256",
          "name": "tokenId",
          "type": "uint256"
        }
      ],
      "name": "ERC721InsufficientApproval",
      "type": "error"
    },
    {
      "inputs": [
        {
          "internalType": "address",
          "name": "approver",
          "type": "address"
        }
      ],
      "name": "ERC721InvalidApprover",
      "type": "error"
    },
    {
      "inputs": [
        {
          "internalType": "address",
          "name": "operator",
          "type": "address"
        }
      ],
      "name": "ERC721InvalidOperator",
      "type": "error"
    },
    {
      "inputs": [
        {
          "internalType": "address",
          "name": "owner",
          "type": "address"
        }
      ],
      "name": "ERC721InvalidOwner",
      "type": "error"
    },
    {
      "inputs": [
        {
          "internalType": "address",
          "name": "receiver",
          "type": "address"
        }
      ],
      "name": "ERC721InvalidReceiver",
      "type": "error"
    },
    {
      "inputs": [
        {
          "internalType": "address",
          "name": "sender",
          "type": "address"
        }
      ],
      "name": "ERC721InvalidSender",
      "type": "error"
    },
    {
      "inputs": [
        {
          "internalType": "uint256",
          "name": "tokenId",
          "type": "uint256"
        }
      ],
      "name": "ERC721NonexistentToken",
      "type": "error"
    },
    {
      "anonymous": false,
      "inputs": [
        {
          "indexed": true,
          "internalType": "address",
          "name": "owner",
          "type": "address"
        },
        {
          "indexed": true,
          "internalType": "address",
          "name": "approved",
          "type": "address"
        },
        {
          "indexed": true,
          "internalType": "uint256",
          "name": "tokenId",
          "type": "uint256"
        }
      ],
      "name": "Approval",
      "type": "event"
    },
    {
      "anonymous": false,
      "inputs": [
        {
          "indexed": true,
          "internalType": "address",
          "name": "owner",
          "type": "address"
        },
        {
          "indexed": true,
          "internalType": "address",
          "name": "operator",
          "type": "address"
        },
        {
          "indexed": false,
          "internalType": "bool",
          "name": "approved",
          "type": "bool"
        }
      ],
      "name": "ApprovalForAll",
      "type": "event"
    },
    {
      "anonymous": false,
      "inputs": [
        {
          "indexed": false,
          "internalType": "uint256",
          "name": "_fromTokenId",
          "type": "uint256"
        },
        {
          "indexed": false,
          "internalType": "uint256",
          "name": "_toTokenId",
          "type": "uint256"
        }
      ],
      "name": "BatchMetadataUpdate",
      "type": "event"
    },
    {
      "anonymous": false,
      "inputs": [
        {
          "indexed": false,
          "internalType": "uint256",
          "name": "_tokenId",
          "type": "uint256"
        }
      ],
      "name": "MetadataUpdate",
      "type": "event"
    },
    {
      "anonymous": false,
      "inputs": [
        {
          "indexed": true,
          "internalType": "address",
          "name": "from",
          "type": "address"
        },
        {
          "indexed": true,
          "internalType": "address",
          "name": "to",
          "type": "address"
        },
        {
          "indexed": true,
          "internalType": "uint256",
          "name": "tokenId",
          "type": "uint256"
        }
      ],
      "name": "Transfer",
      "type": "event"
    },
    {
      "anonymous": false,
      "inputs": [
        {
          "indexed": true,
          "internalType": "address",
          "name": "winner",
          "type": "address"
        },
        {
          "indexed": true,
          "internalType": "uint256",
          "name": "gameId",
          "type": "uint256"
        },
        {
          "indexed": true,
          "internalType": "uint256",
          "name": "tokenId",
          "type": "uint256"
        }
      ],
      "name": "gameEnded",
      "type": "event"
    },
    {
      "anonymous": false,
      "inputs": [
        {
          "indexed": true,
          "internalType": "address",
          "name": "joinedPlayer",
          "type": "address"
        },
        {
          "indexed": true,
          "internalType": "uint256",
          "name": "gameId",
          "type": "uint256"
        }
      ],
      "name": "playerJoinedGame",
      "type": "event"
    },
    {
      "anonymous": false,
      "inputs": [
        {
          "indexed": true,
          "internalType": "address",
          "name": "registeredPlayer",
          "type": "address"
        }
      ],
      "name": "playerRegistered",
      "type": "event"
    },
    {
      "inputs": [
        {
          "internalType": "address",
          "name": "to",
          "type": "address"
        },
        {
          "internalType": "uint256",
          "name": "tokenId",
          "type": "uint256"
        }
      ],
      "name": "approve",
      "outputs": [],
      "stateMutability": "nonpayable",
      "type": "function"
    },
    {
      "inputs": [
        {
          "internalType": "address",
          "name": "owner",
          "type": "address"
        }
      ],
      "name": "balanceOf",
      "outputs": [
        {
          "internalType": "uint256",
          "name": "",
          "type": "uint256"
        }
      ],
      "stateMutability": "view",
      "type": "function"
    },
    {
      "inputs": [
        {
          "internalType": "address",
          "name": "winner",
          "type": "address"
        },
        {
          "internalType": "string",
          "name": "tokenURI",
          "type": "string"
        }
      ],
      "name": "endGame",
      "outputs": [],
      "stateMutability": "nonpayable",
      "type": "function"
    },
    {
      "inputs": [
        {
          "internalType": "uint256",
          "name": "",
          "type": "uint256"
        },
        {
          "internalType": "uint256",
          "name": "",
          "type": "uint256"
        }
      ],
      "name": "gamePlayers",
      "outputs": [
        {
          "internalType": "address",
          "name": "",
          "type": "address"
        }
      ],
      "stateMutability": "view",
      "type": "function"
    },
    {
      "inputs": [
        {
          "internalType": "uint256",
          "name": "",
          "type": "uint256"
        }
      ],
      "name": "gameWinner",
      "outputs": [
        {
          "internalType": "address",
          "name": "",
          "type": "address"
        }
      ],
      "stateMutability": "view",
      "type": "function"
    },
    {
      "inputs": [
        {
          "internalType": "uint256",
          "name": "tokenId",
          "type": "uint256"
        }
      ],
      "name": "getApproved",
      "outputs": [
        {
          "internalType": "address",
          "name": "",
          "type": "address"
        }
      ],
      "stateMutability": "view",
      "type": "function"
    },
    {
      "inputs": [],
      "name": "getCurrentPlayers",
      "outputs": [
        {
          "internalType": "address[]",
          "name": "",
          "type": "address[]"
        }
      ],
      "stateMutability": "view",
      "type": "function"
    },
    {
      "inputs": [
        {
          "internalType": "uint256",
          "name": "id",
          "type": "uint256"
        }
      ],
      "name": "getGameDetails",
      "outputs": [
        {
          "internalType": "address",
          "name": "winner",
          "type": "address"
        },
        {
          "internalType": "address[]",
          "name": "players",
          "type": "address[]"
        }
      ],
      "stateMutability": "view",
      "type": "function"
    },
    {
      "inputs": [
        {
          "internalType": "address",
          "name": "owner",
          "type": "address"
        },
        {
          "internalType": "address",
          "name": "operator",
          "type": "address"
        }
      ],
      "name": "isApprovedForAll",
      "outputs": [
        {
          "internalType": "bool",
          "name": "",
          "type": "bool"
        }
      ],
      "stateMutability": "view",
      "type": "function"
    },
    {
      "inputs": [
        {
          "internalType": "address",
          "name": "",
          "type": "address"
        }
      ],
      "name": "isPlayer",
      "outputs": [
        {
          "internalType": "bool",
          "name": "",
          "type": "bool"
        }
      ],
      "stateMutability": "view",
      "type": "function"
    },
    {
      "inputs": [],
      "name": "joinGame",
      "outputs": [],
      "stateMutability": "nonpayable",
      "type": "function"
    },
    {
      "inputs": [
        {
          "internalType": "address",
          "name": "recepient",
          "type": "address"
        },
        {
          "internalType": "string",
          "name": "tokenURI",
          "type": "string"
        }
      ],
      "name": "mintNFT",
      "outputs": [],
      "stateMutability": "nonpayable",
      "type": "function"
    },
    {
      "inputs": [],
      "name": "name",
      "outputs": [
        {
          "internalType": "string",
          "name": "",
          "type": "string"
        }
      ],
      "stateMutability": "view",
      "type": "function"
    },
    {
      "inputs": [],
      "name": "owner",
      "outputs": [
        {
          "internalType": "address",
          "name": "",
          "type": "address"
        }
      ],
      "stateMutability": "view",
      "type": "function"
    },
    {
      "inputs": [
        {
          "internalType": "uint256",
          "name": "tokenId",
          "type": "uint256"
        }
      ],
      "name": "ownerOf",
      "outputs": [
        {
          "internalType": "address",
          "name": "",
          "type": "address"
        }
      ],
      "stateMutability": "view",
      "type": "function"
    },
    {
      "inputs": [],
      "name": "registerPlayer",
      "outputs": [],
      "stateMutability": "nonpayable",
      "type": "function"
    },
    {
      "inputs": [
        {
          "internalType": "address",
          "name": "from",
          "type": "address"
        },
        {
          "internalType": "address",
          "name": "to",
          "type": "address"
        },
        {
          "internalType": "uint256",
          "name": "tokenId",
          "type": "uint256"
        }
      ],
      "name": "safeTransferFrom",
      "outputs": [],
      "stateMutability": "nonpayable",
      "type": "function"
    },
    {
      "inputs": [
        {
          "internalType": "address",
          "name": "from",
          "type": "address"
        },
        {
          "internalType": "address",
          "name": "to",
          "type": "address"
        },
        {
          "internalType": "uint256",
          "name": "tokenId",
          "type": "uint256"
        },
        {
          "internalType": "bytes",
          "name": "data",
          "type": "bytes"
        }
      ],
      "name": "safeTransferFrom",
      "outputs": [],
      "stateMutability": "nonpayable",
      "type": "function"
    },
    {
      "inputs": [
        {
          "internalType": "address",
          "name": "operator",
          "type": "address"
        },
        {
          "internalType": "bool",
          "name": "approved",
          "type": "bool"
        }
      ],
      "name": "setApprovalForAll",
      "outputs": [],
      "stateMutability": "nonpayable",
      "type": "function"
    },
    {
      "inputs": [
        {
          "internalType": "bytes4",
          "name": "interfaceId",
          "type": "bytes4"
        }
      ],
      "name": "supportsInterface",
      "outputs": [
        {
          "internalType": "bool",
          "name": "",
          "type": "bool"
        }
      ],
      "stateMutability": "view",
      "type": "function"
    },
    {
      "inputs": [],
      "name": "symbol",
      "outputs": [
        {
          "internalType": "string",
          "name": "",
          "type": "string"
        }
      ],
      "stateMutability": "view",
      "type": "function"
    },
    {
      "inputs": [
        {
          "internalType": "uint256",
          "name": "tokenId",
          "type": "uint256"
        }
      ],
      "name": "tokenURI",
      "outputs": [
        {
          "internalType": "string",
          "name": "",
          "type": "string"
        }
      ],
      "stateMutability": "view",
      "type": "function"
    },
    {
      "inputs": [
        {
          "internalType": "address",
          "name": "from",
          "type": "address"
        },
        {
          "internalType": "address",
          "name": "to",
          "type": "address"
        },
        {
          "internalType": "uint256",
          "name": "tokenId",
          "type": "uint256"
        }
      ],
      "name": "transferFrom",
      "outputs": [],
      "stateMutability": "nonpayable",
      "type": "function"
    }
  ],
  "bytecode": "0x608060405260006007556001600855600b600a5534801561001f57600080fd5b506040518060400160405280600f81526020017f456c656374726f556e6f546f6b656e00000000000000000000000000000000008152506040518060400160405280600381526020017f4555540000000000000000000000000000000000000000000000000000000000815250816000908161009b9190610344565b5080600190816100ab9190610344565b50505033600960006101000a81548173ffffffffffffffffffffffffffffffffffffffff021916908373ffffffffffffffffffffffffffffffffffffffff160217905550610416565b600081519050919050565b7f4e487b7100000000000000000000000000000000000000000000000000000000600052604160045260246000fd5b7f4e487b7100000000000000000000000000000000000000000000000000000000600052602260045260246000fd5b6000600282049050600182168061017557607f821691505b6020821081036101885761018761012e565b5b50919050565b60008190508160005260206000209050919050565b60006020601f8301049050919050565b600082821b905092915050565b6000600883026101f07fffffffffffffffffffffffffffffffffffffffffffffffffffffffffffffffff826101b3565b6101fa86836101b3565b95508019841693508086168417925050509392505050565b6000819050919050565b6000819050919050565b600061024161023c61023784610212565b61021c565b610212565b9050919050565b6000819050919050565b61025b83610226565b61026f61026782610248565b8484546101c0565b825550505050565b600090565b610284610277565b61028f818484610252565b505050565b5b818110156102b3576102a860008261027c565b600181019050610295565b5050565b601f8211156102f8576102c98161018e565b6102d2846101a3565b810160208510156102e1578190505b6102f56102ed856101a3565b830182610294565b50505b505050565b600082821c905092915050565b600061031b600019846008026102fd565b1980831691505092915050565b6000610334838361030a565b9150826002028217905092915050565b61034d826100f4565b67ffffffffffffffff811115610366576103656100ff565b5b610370825461015d565b61037b8282856102b7565b600060209050601f8311600181146103ae576000841561039c578287015190505b6103a68582610328565b86555061040e565b601f1984166103bc8661018e565b60005b828110156103e4578489015182556001820191506020850194506020810190506103bf565b8683101561040157848901516103fd601f89168261030a565b8355505b6001600288020188555050505b505050505050565b613132806104256000396000f3fe608060405234801561001057600080fd5b506004361061014d5760003560e01c80636352211e116100c3578063c87b56dd1161007c578063c87b56dd146103b1578063d4f77b1c146103e1578063dfa987a2146103eb578063dfefef9f14610407578063e985e9c514610437578063eacabe14146104675761014d565b80636352211e146102dd57806370a082311461030d5780638da5cb5b1461033d57806395d89b411461035b578063a22cb46514610379578063b88d4fde146103955761014d565b8063095ea7b311610115578063095ea7b31461021e57806309c95e101461023a5780631b31abda1461026a57806323b872dd1461029b57806342842e0e146102b75780635c07a4b0146102d35761014d565b806301ffc9a71461015257806302cac05c1461018257806304791309146101a057806306fdde03146101d0578063081812fc146101ee575b600080fd5b61016c6004803603810190610167919061218c565b610483565b60405161017991906121d4565b60405180910390f35b61018a6104e4565b60405161019791906122df565b60405180910390f35b6101ba60048036038101906101b59190612337565b610585565b6040516101c79190612373565b60405180910390f35b6101d86105b8565b6040516101e5919061241e565b60405180910390f35b61020860048036038101906102039190612337565b61064a565b6040516102159190612373565b60405180910390f35b6102386004803603810190610233919061246c565b610666565b005b610254600480360381019061024f91906124ac565b61067c565b60405161026191906121d4565b60405180910390f35b610284600480360381019061027f9190612337565b61069c565b6040516102929291906124d9565b60405180910390f35b6102b560048036038101906102b09190612509565b6107bd565b005b6102d160048036038101906102cc9190612509565b6108bf565b005b6102db6108df565b005b6102f760048036038101906102f29190612337565b610a09565b6040516103049190612373565b60405180910390f35b610327600480360381019061032291906124ac565b610a1b565b604051610334919061256b565b60405180910390f35b610345610ad5565b6040516103529190612373565b60405180910390f35b610363610afb565b604051610370919061241e565b60405180910390f35b610393600480360381019061038e91906125b2565b610b8d565b005b6103af60048036038101906103aa9190612727565b610ba3565b005b6103cb60048036038101906103c69190612337565b610bc8565b6040516103d8919061241e565b60405180910390f35b6103e9610cdb565b005b6104056004803603810190610400919061284b565b610e88565b005b610421600480360381019061041c91906128a7565b61108c565b60405161042e9190612373565b60405180910390f35b610451600480360381019061044c91906128e7565b6110da565b60405161045e91906121d4565b60405180910390f35b610481600480360381019061047c919061284b565b61116e565b005b6000634906490660e01b7bffffffffffffffffffffffffffffffffffffffffffffffffffffffff1916827bffffffffffffffffffffffffffffffffffffffffffffffffffffffff191614806104dd57506104dc826111fc565b5b9050919050565b6060600d6000600854815260200190815260200160002080548060200260200160405190810160405280929190818152602001828054801561057b57602002820191906000526020600020905b8160009054906101000a900473ffffffffffffffffffffffffffffffffffffffff1673ffffffffffffffffffffffffffffffffffffffff1681526020019060010190808311610531575b5050505050905090565b600c6020528060005260406000206000915054906101000a900473ffffffffffffffffffffffffffffffffffffffff1681565b6060600080546105c790612956565b80601f01602080910402602001604051908101604052809291908181526020018280546105f390612956565b80156106405780601f1061061557610100808354040283529160200191610640565b820191906000526020600020905b81548152906001019060200180831161062357829003601f168201915b5050505050905090565b6000610655826112de565b5061065f82611366565b9050919050565b61067882826106736113a3565b6113ab565b5050565b600b6020528060005260406000206000915054906101000a900460ff1681565b6000606060085483106106e4576040517f08c379a00000000000000000000000000000000000000000000000000000000081526004016106db906129d3565b60405180910390fd5b600c6000600854815260200190815260200160002060009054906101000a900473ffffffffffffffffffffffffffffffffffffffff169150600d600060085481526020019081526020016000208054806020026020016040519081016040528092919081815260200182805480156107b157602002820191906000526020600020905b8160009054906101000a900473ffffffffffffffffffffffffffffffffffffffff1673ffffffffffffffffffffffffffffffffffffffff1681526020019060010190808311610767575b50505050509050915091565b600073ffffffffffffffffffffffffffffffffffffffff168273ffffffffffffffffffffffffffffffffffffffff160361082f5760006040517f64a0ae920000000000000000000000000000000000000000000000000000000081526004016108269190612373565b60405180910390fd5b6000610843838361083e6113a3565b6113bd565b90508373ffffffffffffffffffffffffffffffffffffffff168173ffffffffffffffffffffffffffffffffffffffff16146108b9578382826040517f64283d7b0000000000000000000000000000000000000000000000000000000081526004016108b0939291906129f3565b60405180910390fd5b50505050565b6108da83838360405180602001604052806000815250610ba3565b505050565b600b60003373ffffffffffffffffffffffffffffffffffffffff1673ffffffffffffffffffffffffffffffffffffffff16815260200190815260200160002060009054906101000a900460ff161561096c576040517f08c379a000000000000000000000000000000000000000000000000000000000815260040161096390612a76565b60405180910390fd5b6001600b60003373ffffffffffffffffffffffffffffffffffffffff1673ffffffffffffffffffffffffffffffffffffffff16815260200190815260200160002060006101000a81548160ff0219169083151502179055503373ffffffffffffffffffffffffffffffffffffffff167f9b66d49082843aa418cd502edc3b870cda1cef5aa3c1e289ca61475532afd35660405160405180910390a2565b6000610a14826112de565b9050919050565b60008073ffffffffffffffffffffffffffffffffffffffff168273ffffffffffffffffffffffffffffffffffffffff1603610a8e5760006040517f89c62b64000000000000000000000000000000000000000000000000000000008152600401610a859190612373565b60405180910390fd5b600360008373ffffffffffffffffffffffffffffffffffffffff1673ffffffffffffffffffffffffffffffffffffffff168152602001908152602001600020549050919050565b600960009054906101000a900473ffffffffffffffffffffffffffffffffffffffff1681565b606060018054610b0a90612956565b80601f0160208091040260200160405190810160405280929190818152602001828054610b3690612956565b8015610b835780601f10610b5857610100808354040283529160200191610b83565b820191906000526020600020905b815481529060010190602001808311610b6657829003601f168201915b5050505050905090565b610b9f610b986113a3565b83836115d7565b5050565b610bae8484846107bd565b610bc2610bb96113a3565b85858585611746565b50505050565b6060610bd3826112de565b506000600660008481526020019081526020016000208054610bf490612956565b80601f0160208091040260200160405190810160405280929190818152602001828054610c2090612956565b8015610c6d5780601f10610c4257610100808354040283529160200191610c6d565b820191906000526020600020905b815481529060010190602001808311610c5057829003601f168201915b505050505090506000610c7e6118f7565b90506000815103610c93578192505050610cd6565b600082511115610cc8578082604051602001610cb0929190612ad2565b60405160208183030381529060405292505050610cd6565b610cd18461190e565b925050505b919050565b60011515600b60003373ffffffffffffffffffffffffffffffffffffffff1673ffffffffffffffffffffffffffffffffffffffff16815260200190815260200160002060009054906101000a900460ff16151514610d6e576040517f08c379a0000000000000000000000000000000000000000000000000000000008152600401610d6590612b42565b60405180910390fd5b600a54600d600060085481526020019081526020016000208054905010610dca576040517f08c379a0000000000000000000000000000000000000000000000000000000008152600401610dc190612bae565b60405180910390fd5b600d60006008548152602001908152602001600020339080600181540180825580915050600190039060005260206000200160009091909190916101000a81548173ffffffffffffffffffffffffffffffffffffffff021916908373ffffffffffffffffffffffffffffffffffffffff1602179055506008543373ffffffffffffffffffffffffffffffffffffffff167f037e2f1ec15c5b05db19030cd9b1d29b63af664039badf86ef688551d5dec58060405160405180910390a3565b600960009054906101000a900473ffffffffffffffffffffffffffffffffffffffff1673ffffffffffffffffffffffffffffffffffffffff163373ffffffffffffffffffffffffffffffffffffffff1614610ee257600080fd5b600b60008373ffffffffffffffffffffffffffffffffffffffff1673ffffffffffffffffffffffffffffffffffffffff16815260200190815260200160002060009054906101000a900460ff16610f6e576040517f08c379a0000000000000000000000000000000000000000000000000000000008152600401610f6590612c1a565b60405180910390fd5b6000600d600060085481526020019081526020016000208054905011610fc9576040517f08c379a0000000000000000000000000000000000000000000000000000000008152600401610fc090612cac565b60405180910390fd5b610fd3828261116e565b81600c6000600854815260200190815260200160002060006101000a81548173ffffffffffffffffffffffffffffffffffffffff021916908373ffffffffffffffffffffffffffffffffffffffff1602179055506007546008548373ffffffffffffffffffffffffffffffffffffffff167f9a6a6b8cee91741356cc7da176fdb3aecda5c15bac35d26e6ee28aaab5e784fc60405160405180910390a46008600081548092919061108390612cfb565b91905055505050565b600d60205281600052604060002081815481106110a857600080fd5b906000526020600020016000915091509054906101000a900473ffffffffffffffffffffffffffffffffffffffff1681565b6000600560008473ffffffffffffffffffffffffffffffffffffffff1673ffffffffffffffffffffffffffffffffffffffff16815260200190815260200160002060008373ffffffffffffffffffffffffffffffffffffffff1673ffffffffffffffffffffffffffffffffffffffff16815260200190815260200160002060009054906101000a900460ff16905092915050565b600960009054906101000a900473ffffffffffffffffffffffffffffffffffffffff1673ffffffffffffffffffffffffffffffffffffffff163373ffffffffffffffffffffffffffffffffffffffff16146111c857600080fd5b600760008154809291906111db90612cfb565b91905055506111ec82600754611977565b6111f860075482611995565b5050565b60007f80ac58cd000000000000000000000000000000000000000000000000000000007bffffffffffffffffffffffffffffffffffffffffffffffffffffffff1916827bffffffffffffffffffffffffffffffffffffffffffffffffffffffff191614806112c757507f5b5e139f000000000000000000000000000000000000000000000000000000007bffffffffffffffffffffffffffffffffffffffffffffffffffffffff1916827bffffffffffffffffffffffffffffffffffffffffffffffffffffffff1916145b806112d757506112d6826119f1565b5b9050919050565b6000806112ea83611a5b565b9050600073ffffffffffffffffffffffffffffffffffffffff168173ffffffffffffffffffffffffffffffffffffffff160361135d57826040517f7e273289000000000000000000000000000000000000000000000000000000008152600401611354919061256b565b60405180910390fd5b80915050919050565b60006004600083815260200190815260200160002060009054906101000a900473ffffffffffffffffffffffffffffffffffffffff169050919050565b600033905090565b6113b88383836001611a98565b505050565b6000806113c984611a5b565b9050600073ffffffffffffffffffffffffffffffffffffffff168373ffffffffffffffffffffffffffffffffffffffff161461140b5761140a818486611c5d565b5b600073ffffffffffffffffffffffffffffffffffffffff168173ffffffffffffffffffffffffffffffffffffffff161461149c5761144d600085600080611a98565b6001600360008373ffffffffffffffffffffffffffffffffffffffff1673ffffffffffffffffffffffffffffffffffffffff168152602001908152602001600020600082825403925050819055505b600073ffffffffffffffffffffffffffffffffffffffff168573ffffffffffffffffffffffffffffffffffffffff161461151f576001600360008773ffffffffffffffffffffffffffffffffffffffff1673ffffffffffffffffffffffffffffffffffffffff168152602001908152602001600020600082825401925050819055505b846002600086815260200190815260200160002060006101000a81548173ffffffffffffffffffffffffffffffffffffffff021916908373ffffffffffffffffffffffffffffffffffffffff160217905550838573ffffffffffffffffffffffffffffffffffffffff168273ffffffffffffffffffffffffffffffffffffffff167fddf252ad1be2c89b69c2b068fc378daa952ba7f163c4a11628f55a4df523b3ef60405160405180910390a4809150509392505050565b600073ffffffffffffffffffffffffffffffffffffffff168273ffffffffffffffffffffffffffffffffffffffff160361164857816040517f5b08ba1800000000000000000000000000000000000000000000000000000000815260040161163f9190612373565b60405180910390fd5b80600560008573ffffffffffffffffffffffffffffffffffffffff1673ffffffffffffffffffffffffffffffffffffffff16815260200190815260200160002060008473ffffffffffffffffffffffffffffffffffffffff1673ffffffffffffffffffffffffffffffffffffffff16815260200190815260200160002060006101000a81548160ff0219169083151502179055508173ffffffffffffffffffffffffffffffffffffffff168373ffffffffffffffffffffffffffffffffffffffff167f17307eab39ab6107e8899845ad3d59bd9653f200f220920489ca2b5937696c318360405161173991906121d4565b60405180910390a3505050565b60008373ffffffffffffffffffffffffffffffffffffffff163b11156118f0578273ffffffffffffffffffffffffffffffffffffffff1663150b7a02868685856040518563ffffffff1660e01b81526004016117a59493929190612d98565b6020604051808303816000875af19250505080156117e157506040513d601f19601f820116820180604052508101906117de9190612df9565b60015b611865573d8060008114611811576040519150601f19603f3d011682016040523d82523d6000602084013e611816565b606091505b50600081510361185d57836040517f64a0ae920000000000000000000000000000000000000000000000000000000081526004016118549190612373565b60405180910390fd5b805181602001fd5b63150b7a0260e01b7bffffffffffffffffffffffffffffffffffffffffffffffffffffffff1916817bffffffffffffffffffffffffffffffffffffffffffffffffffffffff1916146118ee57836040517f64a0ae920000000000000000000000000000000000000000000000000000000081526004016118e59190612373565b60405180910390fd5b505b5050505050565b606060405180602001604052806000815250905090565b6060611919826112de565b5060006119246118f7565b90506000815111611944576040518060200160405280600081525061196f565b8061194e84611d21565b60405160200161195f929190612ad2565b6040516020818303038152906040525b915050919050565b611991828260405180602001604052806000815250611def565b5050565b806006600084815260200190815260200160002090816119b59190612fd2565b507ff8e1a15aba9398e019f0b49df1a4fde98ee17ae345cb5f6b5e2c27f5033e8ce7826040516119e5919061256b565b60405180910390a15050565b60007f01ffc9a7000000000000000000000000000000000000000000000000000000007bffffffffffffffffffffffffffffffffffffffffffffffffffffffff1916827bffffffffffffffffffffffffffffffffffffffffffffffffffffffff1916149050919050565b60006002600083815260200190815260200160002060009054906101000a900473ffffffffffffffffffffffffffffffffffffffff169050919050565b8080611ad15750600073ffffffffffffffffffffffffffffffffffffffff168273ffffffffffffffffffffffffffffffffffffffff1614155b15611c05576000611ae1846112de565b9050600073ffffffffffffffffffffffffffffffffffffffff168373ffffffffffffffffffffffffffffffffffffffff1614158015611b4c57508273ffffffffffffffffffffffffffffffffffffffff168173ffffffffffffffffffffffffffffffffffffffff1614155b8015611b5f5750611b5d81846110da565b155b15611ba157826040517fa9fbf51f000000000000000000000000000000000000000000000000000000008152600401611b989190612373565b60405180910390fd5b8115611c0357838573ffffffffffffffffffffffffffffffffffffffff168273ffffffffffffffffffffffffffffffffffffffff167f8c5be1e5ebec7d5bd14f71427d1e84f3dd0314c0f7b2291e5b200ac8c7c3b92560405160405180910390a45b505b836004600085815260200190815260200160002060006101000a81548173ffffffffffffffffffffffffffffffffffffffff021916908373ffffffffffffffffffffffffffffffffffffffff16021790555050505050565b611c68838383611e13565b611d1c57600073ffffffffffffffffffffffffffffffffffffffff168373ffffffffffffffffffffffffffffffffffffffff1603611cdd57806040517f7e273289000000000000000000000000000000000000000000000000000000008152600401611cd4919061256b565b60405180910390fd5b81816040517f177e802f000000000000000000000000000000000000000000000000000000008152600401611d139291906130a4565b60405180910390fd5b505050565b606060006001611d3084611ed4565b01905060008167ffffffffffffffff811115611d4f57611d4e6125fc565b5b6040519080825280601f01601f191660200182016040528015611d815781602001600182028036833780820191505090505b509050600082602001820190505b600115611de4578080600190039150507f3031323334353637383961626364656600000000000000000000000000000000600a86061a8153600a8581611dd857611dd76130cd565b5b04945060008503611d8f575b819350505050919050565b611df98383612027565b611e0e611e046113a3565b6000858585611746565b505050565b60008073ffffffffffffffffffffffffffffffffffffffff168373ffffffffffffffffffffffffffffffffffffffff1614158015611ecb57508273ffffffffffffffffffffffffffffffffffffffff168473ffffffffffffffffffffffffffffffffffffffff161480611e8c5750611e8b84846110da565b5b80611eca57508273ffffffffffffffffffffffffffffffffffffffff16611eb283611366565b73ffffffffffffffffffffffffffffffffffffffff16145b5b90509392505050565b600080600090507a184f03e93ff9f4daa797ed6e38ed64bf6a1f0100000000000000008310611f32577a184f03e93ff9f4daa797ed6e38ed64bf6a1f0100000000000000008381611f2857611f276130cd565b5b0492506040810190505b6d04ee2d6d415b85acef81000000008310611f6f576d04ee2d6d415b85acef81000000008381611f6557611f646130cd565b5b0492506020810190505b662386f26fc100008310611f9e57662386f26fc100008381611f9457611f936130cd565b5b0492506010810190505b6305f5e1008310611fc7576305f5e1008381611fbd57611fbc6130cd565b5b0492506008810190505b6127108310611fec576127108381611fe257611fe16130cd565b5b0492506004810190505b6064831061200f5760648381612005576120046130cd565b5b0492506002810190505b600a831061201e576001810190505b80915050919050565b600073ffffffffffffffffffffffffffffffffffffffff168273ffffffffffffffffffffffffffffffffffffffff16036120995760006040517f64a0ae920000000000000000000000000000000000000000000000000000000081526004016120909190612373565b60405180910390fd5b60006120a7838360006113bd565b9050600073ffffffffffffffffffffffffffffffffffffffff168173ffffffffffffffffffffffffffffffffffffffff161461211b5760006040517f73c6ac6e0000000000000000000000000000000000000000000000000000000081526004016121129190612373565b60405180910390fd5b505050565b6000604051905090565b600080fd5b600080fd5b60007fffffffff0000000000000000000000000000000000000000000000000000000082169050919050565b61216981612134565b811461217457600080fd5b50565b60008135905061218681612160565b92915050565b6000602082840312156121a2576121a161212a565b5b60006121b084828501612177565b91505092915050565b60008115159050919050565b6121ce816121b9565b82525050565b60006020820190506121e960008301846121c5565b92915050565b600081519050919050565b600082825260208201905092915050565b6000819050602082019050919050565b600073ffffffffffffffffffffffffffffffffffffffff82169050919050565b60006122468261221b565b9050919050565b6122568161223b565b82525050565b6000612268838361224d565b60208301905092915050565b6000602082019050919050565b600061228c826121ef565b61229681856121fa565b93506122a18361220b565b8060005b838110156122d25781516122b9888261225c565b97506122c483612274565b9250506001810190506122a5565b5085935050505092915050565b600060208201905081810360008301526122f98184612281565b905092915050565b6000819050919050565b61231481612301565b811461231f57600080fd5b50565b6000813590506123318161230b565b92915050565b60006020828403121561234d5761234c61212a565b5b600061235b84828501612322565b91505092915050565b61236d8161223b565b82525050565b60006020820190506123886000830184612364565b92915050565b600081519050919050565b600082825260208201905092915050565b60005b838110156123c85780820151818401526020810190506123ad565b60008484015250505050565b6000601f19601f8301169050919050565b60006123f08261238e565b6123fa8185612399565b935061240a8185602086016123aa565b612413816123d4565b840191505092915050565b6000602082019050818103600083015261243881846123e5565b905092915050565b6124498161223b565b811461245457600080fd5b50565b60008135905061246681612440565b92915050565b600080604083850312156124835761248261212a565b5b600061249185828601612457565b92505060206124a285828601612322565b9150509250929050565b6000602082840312156124c2576124c161212a565b5b60006124d084828501612457565b91505092915050565b60006040820190506124ee6000830185612364565b81810360208301526125008184612281565b90509392505050565b6000806000606084860312156125225761252161212a565b5b600061253086828701612457565b935050602061254186828701612457565b925050604061255286828701612322565b9150509250925092565b61256581612301565b82525050565b6000602082019050612580600083018461255c565b92915050565b61258f816121b9565b811461259a57600080fd5b50565b6000813590506125ac81612586565b92915050565b600080604083850312156125c9576125c861212a565b5b60006125d785828601612457565b92505060206125e88582860161259d565b9150509250929050565b600080fd5b600080fd5b7f4e487b7100000000000000000000000000000000000000000000000000000000600052604160045260246000fd5b612634826123d4565b810181811067ffffffffffffffff82111715612653576126526125fc565b5b80604052505050565b6000612666612120565b9050612672828261262b565b919050565b600067ffffffffffffffff821115612692576126916125fc565b5b61269b826123d4565b9050602081019050919050565b82818337600083830152505050565b60006126ca6126c584612677565b61265c565b9050828152602081018484840111156126e6576126e56125f7565b5b6126f18482856126a8565b509392505050565b600082601f83011261270e5761270d6125f2565b5b813561271e8482602086016126b7565b91505092915050565b600080600080608085870312156127415761274061212a565b5b600061274f87828801612457565b945050602061276087828801612457565b935050604061277187828801612322565b925050606085013567ffffffffffffffff8111156127925761279161212f565b5b61279e878288016126f9565b91505092959194509250565b600067ffffffffffffffff8211156127c5576127c46125fc565b5b6127ce826123d4565b9050602081019050919050565b60006127ee6127e9846127aa565b61265c565b90508281526020810184848401111561280a576128096125f7565b5b6128158482856126a8565b509392505050565b600082601f830112612832576128316125f2565b5b81356128428482602086016127db565b91505092915050565b600080604083850312156128625761286161212a565b5b600061287085828601612457565b925050602083013567ffffffffffffffff8111156128915761289061212f565b5b61289d8582860161281d565b9150509250929050565b600080604083850312156128be576128bd61212a565b5b60006128cc85828601612322565b92505060206128dd85828601612322565b9150509250929050565b600080604083850312156128fe576128fd61212a565b5b600061290c85828601612457565b925050602061291d85828601612457565b9150509250929050565b7f4e487b7100000000000000000000000000000000000000000000000000000000600052602260045260246000fd5b6000600282049050600182168061296e57607f821691505b60208210810361298157612980612927565b5b50919050565b7f496e76616c69642067616d652049442100000000000000000000000000000000600082015250565b60006129bd601083612399565b91506129c882612987565b602082019050919050565b600060208201905081810360008301526129ec816129b0565b9050919050565b6000606082019050612a086000830186612364565b612a15602083018561255c565b612a226040830184612364565b949350505050565b7f596f752061726520616c72656164792072656769737465726564210000000000600082015250565b6000612a60601b83612399565b9150612a6b82612a2a565b602082019050919050565b60006020820190508181036000830152612a8f81612a53565b9050919050565b600081905092915050565b6000612aac8261238e565b612ab68185612a96565b9350612ac68185602086016123aa565b80840191505092915050565b6000612ade8285612aa1565b9150612aea8284612aa1565b91508190509392505050565b7f596f75206d757374207265676973746572206669727374210000000000000000600082015250565b6000612b2c601883612399565b9150612b3782612af6565b602082019050919050565b60006020820190508181036000830152612b5b81612b1f565b9050919050565b7f4d617820706c617965727320616c726561647920726561636865642100000000600082015250565b6000612b98601c83612399565b9150612ba382612b62565b602082019050919050565b60006020820190508181036000830152612bc781612b8b565b9050919050565b7f77696e6e65722073686f756c6420626520726567697374657265642100000000600082015250565b6000612c04601c83612399565b9150612c0f82612bce565b602082019050919050565b60006020820190508181036000830152612c3381612bf7565b9050919050565b7f4e6f20706c617965727320666f756e64206f6e207468652063757272656e742060008201527f67616d6521000000000000000000000000000000000000000000000000000000602082015250565b6000612c96602583612399565b9150612ca182612c3a565b604082019050919050565b60006020820190508181036000830152612cc581612c89565b9050919050565b7f4e487b7100000000000000000000000000000000000000000000000000000000600052601160045260246000fd5b6000612d0682612301565b91507fffffffffffffffffffffffffffffffffffffffffffffffffffffffffffffffff8203612d3857612d37612ccc565b5b600182019050919050565b600081519050919050565b600082825260208201905092915050565b6000612d6a82612d43565b612d748185612d4e565b9350612d848185602086016123aa565b612d8d816123d4565b840191505092915050565b6000608082019050612dad6000830187612364565b612dba6020830186612364565b612dc7604083018561255c565b8181036060830152612dd98184612d5f565b905095945050505050565b600081519050612df381612160565b92915050565b600060208284031215612e0f57612e0e61212a565b5b6000612e1d84828501612de4565b91505092915050565b60008190508160005260206000209050919050565b60006020601f8301049050919050565b600082821b905092915050565b600060088302612e887fffffffffffffffffffffffffffffffffffffffffffffffffffffffffffffffff82612e4b565b612e928683612e4b565b95508019841693508086168417925050509392505050565b6000819050919050565b6000612ecf612eca612ec584612301565b612eaa565b612301565b9050919050565b6000819050919050565b612ee983612eb4565b612efd612ef582612ed6565b848454612e58565b825550505050565b600090565b612f12612f05565b612f1d818484612ee0565b505050565b5b81811015612f4157612f36600082612f0a565b600181019050612f23565b5050565b601f821115612f8657612f5781612e26565b612f6084612e3b565b81016020851015612f6f578190505b612f83612f7b85612e3b565b830182612f22565b50505b505050565b600082821c905092915050565b6000612fa960001984600802612f8b565b1980831691505092915050565b6000612fc28383612f98565b9150826002028217905092915050565b612fdb8261238e565b67ffffffffffffffff811115612ff457612ff36125fc565b5b612ffe8254612956565b613009828285612f45565b600060209050601f83116001811461303c576000841561302a578287015190505b6130348582612fb6565b86555061309c565b601f19841661304a86612e26565b60005b828110156130725784890151825560018201915060208501945060208101905061304d565b8683101561308f578489015161308b601f891682612f98565b8355505b6001600288020188555050505b505050505050565b60006040820190506130b96000830185612364565b6130c6602083018461255c565b9392505050565b7f4e487b7100000000000000000000000000000000000000000000000000000000600052601260045260246000fdfea2646970667358221220c8653261dc9355f7686e47fea5dbbc2c3d4db890cd84bcd99bcc7583b3f7da5d64736f6c634300081c0033",
  "linkReferences": {},
  "deployedLinkReferences": {}
}